S22EBFFF00837CC13E544D2D54383856204669726D776172652056657273696F6E2033302E3237204553432F504F5394
S220BFFF0006F9609F4D6433302E3237204553432F504F5300544D2D543838560074
S22000000018F09FE518F09FE518F09FE518F09FE518F09FE518F09FE518F09FE50B
S22000001C18F09FE52C0200F0B30000F0B30000F0B30000F0B30000F0B30000F0EA
S220000038B30000F0B30000F0FFFFFFEAFEFFFFEA10B54F488088042188434D49AA
S22000005488800A2000F0F2E9FF20401C4949088524E04848808804210843464959
S2200000708880A02000F0E8E9434880880421884341498880A02000F0E0E93F48D1
S22000008C8088042108433D498880A02000F0D6E93A4880880421884338498880DB
S2200000A84120400100F0CCE9D9E710B53448808804218843324988800A2000F05A
S2200000C4BEE9FF20401C2F4908855AE02D488088042108432B498880A02000F0A1
S2200000E0B4E9294880880421884327498880A02000F0AAE924488088042108435A
S2200000FC22498880A02000F0A2E920488088042188431E498880A02000F098E935
S2200001181B4880880421084319498880A02000F090E917488088042188431549A3
S2200001348880A02000F086E9124880880421084310498880A02000F07EE90E48E3
S2200001508088042188430C498880A02000F074E90948808804210843074988800B
S22000016CA02000F06CE90548808804218843034988802320400100F062E9A3E78B
S22000018800000030F1B582B00298022804D11F480190851C1E4E03E01E480190D6
S2200001A4851C1E4E00272888B0420AD1029800F04EE9040001980188081919491F
S2200001C0884200D101273800FEBD38B5164800786B461870144840785870187800
S2200001DC587000F03CE90220FFF7D2FF0400012C01D102250AE00320FFF7CAFF46
S2200001F80400012C01D1032502E0FFF721FF38BD032D01D100F028E9F9E70000EB
S220000214FCFF01B0C35A0000FC3F06B0A53C0000FFFF000000C000F00000A0E3FD
S2200002300010A0E30020A0E30030A0E30040A0E30050A0E30060A0E30070A0E358
S22000024C0080A0E30090A0E300A0A0E300B0A0E300C0A0E368019FE5D1F021E330
S22000026802DC40E200E0A0E30080A0E30090A0E300A0A0E300B0A0E300C0A0E363
S220000284D2F021E30ADD40E200E0A0E3D7F021E305DC40E200E0A0E3DBF021E327
S2200002A015DD40E200E0A0E3DFF021E316DD40E200E0A0E3D3F021E303DC40E2B3
S2200002BC00E0A0E30C119FE50C019FE50000A0E108119FE508019FE5000081E57B
S2200002D804119FE504019FE5000081E500119FE5F8009FE5000081E5F8109FE57A
S2200002F4EC009FE5000081E5F0109FE50F02A0E3000081E5E8109FE5E8009FE5AD
S220000310000081E5E4109FE5E4009FE5000081E5E0109FE5D8009FE5000081E5EA
S22000032CD8109FE5CC009FE5000081E5D0109FE5C0009FE5000081E5C8109FE524
S2200003480000A0E3000081E5C0109FE50000A0E3000081E5B8109FE50000A0E39F
S220000364000081E5B0109FE50000A0E3000081E5A8109FE51000A0E3000081E5B0
S220000380A0109FE50100A0E3000081E598009FE598109FE598209FE5000052E385
S22000039C0300000A043090E4043081E4042042E2F9FFFFEA80009FE50FE0A0E155
S2200003B810FF2FE10B02A0E30FE0A0E110FF2FE16CF09FE5FEFFFFEA00100040D0
S2200003D40420002E555500000820002E722200000C20002E101000001020002E4A
S2200003F01420002E1820002E1C20002E000084202C20002E278006003020002E71
S22000040C3420002E3820002E3C20002E4020002E4420002E4820002E6C30002CBF
S2200004280402002A680400F000900440D0010000CB0100F02C0200F004F01FE5B0
S2200004443991044004F01FE59D91044004F01FE5D790044004F01FE5C7900440E9
S22000046004F01FE50B91044003E003680B60001D091D9142F9D1704700B5424A12
S22000047C0B2109074148FFF7F1FF414A41494248FFF7ECFF00BD00B5FFF7F0FFDD
S22000049800BD41200D210907088002200871002008727047F3B581B00C00019DF0
S2200004B4260002E0374828602D1DB542FAD1019D06E02F683348874201D000F0EC
S2200004D0B0E82D1DB542F6D1019D03E02E48C04328602D1DB542F9D1019D07E059
S2200004EC2F682A48C043874201D000F09CE82D1DB542F5D1019D02E000202860A6
S2200005082D1DB542FAD1FEBD70B50B2424071B4D29002000FFF7C6FF1B4C1A4D52
S22000052429002000FFF7C0FF70BD10B5FFF7EEFFFFF7B1FFFFF7ABFF10BD30B5EB
S2200005400100022905D10B2212070E4C203CE08B03E00F4A0D4C203CE08B104B7A
S22000055C04E01588921C2C182004000C1C005B1E002CF6D130BD00B5034A0B2138
S22000057809070548FFF774FF00BD0000000002B0000001F0004006B0004004B052
S220000594000009F055555555FEFF00000022214B9A761A00927E83231A401E4BCB
S2200005B09A761A00927E01231A431B4B9A767D22D200904200DD1000A322174BA2
S2200005CC20339A700022DA71521E144B1A811A8282001218521E1104090C1A00DE
S2200005E8927E02231A430E4B9A76C0460C4A12888A42FBDB00220A4B9A76704721
S22000060430B504000848844200DD0400002506E07D20C000FFF7C2FF681C050449
S21C0006202D0CA542F6DB30BD40D8002C1027000004F01FE5490000F033
S22000C00064312E303120202020202020202020202020202020202020202020201B
S20C00C01C202020202000000077
S22001000004009FE50FE0A0E110FF2FE1DC3D01B004309FE503308FE013FF2FE181
S22001001C097E005010B513F022EE10BD30B50B008400044D6219002901D0136099
S22001003801E0024C146030BD0C8801B0210000B070B50648006805002C88012C3F
S22001005404D9602C02D2200000F024F870BD000000F2FFFF70B5002406E02000B5
S220010070621C1404240C0021FFF7D6FF602CF6DB00240CE02000611C0C04240C72
S22001008CC00005490968451828686968FFF7C6FFC046082CF0DB70BDA44B01B088
S2200100A870B5040013480068401C12490860A00011494618114D14206043451940
S2200100C468680068E968084203D0E868A968086001E02869804713F0D6ED20008C
S2200100E03168884700200849086013F0C6ED03480068401E0149086070BD000017
S2200100FC9C5B01B00C8801B0884201B000F2FFFF0020EA490870EA49487270471B
S220010118E948008840084000E7490880704710B50120E6490870E648806A002848
S22001013404D0E448816A0020884701E003F012F810BD10B50220DC490C3948602B
S220010150DC480C380860091D081F01F056FA10BDD748808940084000D54988818B
S22001016C7047D448808901210843D249888170477CB504000D00012D0FD168464F
S22001018803F03BF8CD48401E00782043CB49491E0870FFF7E8FF684603F041F837
S2200101A41AE0684603F02BF8C548401E0078A043C349491E0870080018384068CA
S2200101C0091F0968084206D1BE48401E0078002801D1FFF7C5FF684603F025F815
S2200101DC7CBD10B5B8480C38007940084000B6490C390871080080784870002128
S2200101F80220FFF7BFFF10BD1CB5684602F0FDFFAE48C01F0078C007C00F41D1E0
S220010214AB480C380079C007C00F0FD0A848C01F007801210843A649C91F0870A0
S220010230FFF7D5FF684602F0F6FFFFF784FF2BE0A048C01F0078802188439E4937
S22001024CC91F087002F068FF684602F0E6FF01F097FA684602F0CFFF9748C01FA4
S22001026800782021084213D09448C01F007888439249C91F0870684602F0D1FFE5
S22001028490484069002803D08E494869804701E002F068FF684602F0C4FF1CBD17
S2200102A010B58948406A002803D08749486A804701E002F059FF10BD10B50320D8
S2200102BC7F490C39486082480860091D081F01F09EF910BD1CB501F06FFA7948AB
S2200102D80C384068002805D076490839081F01F090F946E07548401C0078022899
S2200102F406D101207249491C0870FFF7DBFF3AE06F48401C0078012809D10020C0
S2200103106C49491C087002226D497D20C00002F0E7FE684602F06DFF6648C01F92
S22001032C00781021084215D06348C01F0078112188436149C91F0870684602F02E
S2200103486EFF5F48C068002803D05D49C86880470FE002F005FF0CE05848C01F6F
S2200103640078400840005649C91F0870684602F058FFFFF743FF1CBD514921397C
S2200103800860704770B50120FFF7F8FF01F0B4F804004B48408B05062D0E4B4831
S22001039C8068002805D04948210082682800904701E002F0DBFE70BD10B504001D
S2200103B8012C04D101210120FFF7DCFE03E000210120FFF7D7FE10BD10B502008A
S2200103D400203B4B1B78012B21D101200023384C2370002A05D04303394CE36048
S2200103F023005A6006E005235B03364CE360314B1D3B63602E4B1A33324C23607F
S22001040C4B1EA36003235B02236123001B69012423432D4C236110BDF8B50400AE
S2200104280D0016001F0022222100294811F062EDA87822490C39C8706078491F02
S2200104440870A07948700020C8700871F8BD01000020002906D11A4A113A52782D
S220010460012A00D1012000E0C046C0467047704702000020704710B501F0ABF8D1
S22001047C174840880121490288431549488010BD10B50E488069002803D00C49B8
S2200104988869804701E002F063FE10BD10B500220021962002F079FEFFF7ECFF81
S2200104B410BD0000655A01B0E05F01B000020030815A01B0A85F01B0084A01B080
S2200104D0A10200B00024002EEC5F01B0100100301CB5684602F08DFE0820E749D4
S2200104EC8870C81D00680221084205D0E348807801210843E1498870E048C01DB0
S22001050800680821084205D1DD48807802210843DB498870DA48C01D00680421ED
S220010524084204D0D74880780843D6498870D5480D380068D349C91D0968084297
S22001054005D0D148807810210843CF498870684602F069FE684602F054FECB481B
S22001055C8078CA494978884206D0C848007901210843C64908710EE0C448007920
S220010578C007C00F09D0C248007940084000C049087100210220FFF7F5FD68468C
S22001059402F047FE684602F032FEBA480079C007C00F1DD002F0C7FDB648401D2F
S2200105B000788021084211D1B348401D007881210843B149491D0870FFF709FE52
S2200105CC684602F02AFE01F0C2F8FFF7B6FD03E001210220FFF7CCFD684602F06B
S2200105E81EFE1CBD7CB504000D002C40684602F004FEA348C01D0068A843A149A7
S220010604C91D08600800006820430860684602F008FE684602F0F3FD9A480D38EE
S22001062040689949C91D0968084201D0FFF79FFD684602F0F8FDFFF753FF68469F
S22001063C02F0E1FD91480D3840689049C91D0968084206D18D480B300078002805
S22001065801D1FFF781FD684602F0E1FD7CBD1CB5684602F0CAFD8648401D0078A8
S220010674802108420BD08348401D0078202108438049491D0870684602F0CBFD63
S2200106900CE0684602F0C7FD7C484069002803D07A494869804701E002F05EFD27
S2200106AC1CBD7CB504006068002865D0684602F0A2FD7248401D0078C007C00F95
S2200106C80CD06F48401D0078102108436C49491D0870684602F0A3FD002550E004
S2200106E46848401D0078912108436649491D0870684602F096FD01F02EF86846ED
S22001070002F07FFD60480079C007C00F0DD05E48C078217A884208DCFFF761FD5A
S22001071C684602F082FDFFF710FD00252DE0607A00281BD05748008A04210842E2
S22001073816D053480079C007C00F08D0FFF74BFD684602F06CFDFFF7FAFC0025DF
S22001075417E000204B49491D0870684602F061FD02250EE0684602F05CFD49485D
S2200107700ECC0EC00C3C01000839081F00F045FF012500E0002528007CBD10B589
S22001078C4248006901210903084340490861C0463E48006910210842FAD13C482E
S2200107A80069400840003A4908610800006939490843374908610120C0053749C5
S2200107C4486201202F490C3108702F48806A002804D02D48816A0120884701E08D
S2200107E002F0C2FC10BD0100022901D2002000E0012070471CB5012080032949BC
S2200107FC80390862C0462348408B2248C08902210842F8D04803234908626846C5
S22001081802F0F3FC1A480E30007800280AD11A48408901210843184948810120DF
S22001083480031A4980390860684602F0F2FC1CBD10B50400002C04D0012C05D069
S220010850022C15D111E000F0BCFE12E000F0B6FF022807D101E0FFF78DFD09488C
S22001086CC08902210842F8D000F07DFE03E000F03FFE00E0C04610BD14207047D3
S220010888755A01B0A85F01B000020030D45F01B00024002E0410000000F1FFFFAB
S2200108A410B5FA48406A002803D0F849486A804701E002F057FC10BD01000020B8
S2200108C0F44B1B680B600A6803E0521C431C1804000C1378002BF8D1704710B5A4
S2200108DC00F06AFFED484068002805D0EB49091D081F00F08CFE0FE000F04AFFA4
S2200108F8E8480078012809D1E3480068002803D0E1490868804701E002F02AFC4B
S22001091410BD10B5E148E24908600020091D0870891F0870DB494860DD49C91FBB
S22001093008710D3108700120491E08700020891C087000F0ADFD00F073FD00F04F
S22001094CD5FC10BD1CB50400D1480078012801D1012C0AD10020D0491439086094
S220010968CF484860012008318870FFF7D0FFC9480078002834D1002C32D1C648A4
S2200109840078401CC44908701520C549C91F08700E204870684602F032FCC34896
S2200109A002F080FC684602F03EFCC1484088012149020843BE494880BE484089C6
S2200109BC20210843BC4948810120C004BB4948600220B2494860B448C01F086026
S2200109D800F0BFFEAE49091D081F00F012FE31E0012000F05FFD684602F007FCEB
S2200109F4B14802F055FC684602F013FCA6480078012801D1012C10D1A8484088CF
S220010A10012149020843A6494880A648408920210843A44948810120C004A3498B
S220010A2C48600A209A49087096484068002805D09448416898480C38884701E09F
S220010A4802F08EFB1CBD92480C30407A282801D10A2070471E20FCE71CB56846C5
S220010A6402F0CDFB8E48801E0078C007C00F07D002208B49891D0870684602F0A9
S220010A80D2FB12E08748801E0078812108438549891E0870684602F0C6FB012054
S220010A9C8149891D087000F05AFEFFF707FC1CBD0100012279480C304068401C11
S220010AB8086002E0501C0204120C75480C304068805C002803D0FF20801C82424B
S220010AD4F2DB501E0004000C70471CB5684602F08EFB08206E49C91F8870C81D60
S220010AF000680221084207D06A48C01F8078012108436849C91F8870664800689B
S220010B0C0821084207D16448C01F8078022108436149C91F8870604800680421CC
S220010B28084206D05D48C01F807808435B49C91F88705A481438006858490968D8
S220010B44084207D05648C01F8078102108435449C91F8870684602F064FB684653
S220010B6002F04FFB4F48C01F0079012108434D49C91F087102F0E1FA4A48801EE7
S220010B7C00788021084211D14748801E0078812108434549891E0870FFF723FBBF
S220010B98684602F044FB00F0DCFDFFF7D0FA03E001210220FFF7E6FA684602F036
S220010BB438FB1CBD37480C308078C007C00F0DD001203E49487036490C39087051
S220010BD038484088FF21491C08433649488005E00020374988712F490C394870B1
S220010BEC70477CB5040001202B49C91D087001210420FFF7BDFA00F0E6FC2A48D1
S220010C084088012149028843274948802148007805000A201F490870684602F002
S220010C24EEFA1F48801E00782021084213D01C48801E007888431A49891E087014
S220010C40684602F0F0FA12484069002803D010494869804701E002F087FA684637
S220010C5C02F0E3FA0B48C069002804D00948C1692000884701E002F079FA0A2D48
S220010C7826D005484068002820D00348416807480C3888471CE00000A85F01B04D
S220010C945C5A01B0D45F01B0655A01B0050001007C5A01B001000300DB0800B05F
S220010CB0100100300002003080F0FFFFD10200B0EC5F01B002F050FA7CBD10B588
S220010CCCF248808901210843F04988810800408B0406240EEE48007805280AD14F
S220010CE8ED480088FF21891C884204DAEB484068E94909884454E8480088401C76
S220010D04E649088008000088012826DC002C19D100F0E6FCE048007807280FD1C4
S220010D20DE480078401CDD490870DF480068002803D0DD49086880477CE002F0E4
S220010D3C15FA79E00220FFF754FF75E0601CD549891C0870D1488089400840000C
S220010D58CF4988816AE0D048801C0078CE490988884206D0CC48801C007800284A
S220010D7458D1002C56D100F0B3FCC74803789B1E11F01CEB07050E11142D303823
S220010D904300032C02DCC348047002E00220FFF726FF35E0BF48447032E0BE486B
S220010DAC84702FE0BB480088FF21891C884206DB0021B9484068FF30401C017061
S220010DC805E00020B5494968B34A12888854B1480078401CAF49087016E0B048B7
S220010DE4047213E0012C04D0AB480078401CAA4908700BE0002C04DD1A2C02DC35
S220010E00A848447202E00220FFF7F1FE00E0C046C046A5480068002803D0A34919
S220010E1C0868804708E002F0A1F905E09B488089400840009949888110BD10B533
S220010E389B480068002803D099490868804701E002F08EF910BD10B5914880896B
S220010E54012108438F4988810800C089022108420AD090480068002803D08E4984
S220010E700868804719E002F077F916E0C0468648408B8548C08902210842F8D0EE
S220010E8C48038749086281488089400840007F49888101228349FF20913002F0D3
S220010EA87CF910BD10B500F081FC7C480C384068002805D079490839081F00F0ED
S220010EC4A2FB29E0744800780A2825DA00F05CFC7148007801280CD16E488089C3
S220010EE0400840006C49888101227149FF20913002F057F912E06948007809285F
S220010EFC06DB01226C494B20000102F04CF907E000F0C0FB6148808940084000AC
S220010F185F49888110BD1CB55E480078401C5D49087000205C490880891C087066
S220010F345948037811F042EA0AA306323E3F5440416F8BA3152055490F390870EB
S220010F501E204870684602F054F9574802F0A2F9564802F09CF9684602F05DF955
S220010F6C5448408801214902084352494880474840892021084345494881012088
S220010F88C004484980394860022044490C39486041480F38086071E03D4840891E
S220010FA4012108433B494881012080033E4980390860C046C046C046C04637488E
S220010FC00078801E0406240E60003E49085C401C34490C39486060003A49401871
S220010FDC31490C3908604FE0FFF7E8FDFF20801C02F067F82C49486029480078B0
S220010FF8801E0406240E60003049085C401C27490C39486060002D49401824496C
S2200110140C39086034E020480078801E0406240E60002749085C274908706000C3
S220011030244940184078244948701A20887060002049085C401C17490C394860F4
S22001104C1E48086018E0012080031549803908620F480078801E0406240E60008E
S2200110681649085C401C0D490C3948606000134940180A490C39086000E0C0460A
S220011084C04600F068FB06490839081F00F0BBFA1CBD000000020030655A01B01A
S2200110A0845A01B0E05F01B0A85F01B000F1FFFF4F0E00B0370E00B0AD0E00B09B
S2200110BCCB0C00B0100100300C4A01B0A85E01B01CB5040065480078002806D094
S2200110D8634800780A2802DAE007C00F09D0614861490860401048600120083129
S2200110F48870FFF70EFC5B480078092804DA002C02D1FFF70AFF3AE0594909787D
S220011110080000F0CBF9684602F073F8564802F0C1F8564802F0BBF8684602F0CA
S22001112C7CF84E480078092801D1012C10D1514840880121490208434E49488096
S2200111484E484089202108434C4948810120C0044B4948600A2042490870002CC2
S22001116401D1FFF7BAFC48484068002805D0464841683E480830884701E001F020
S220011180F3FF1CBD7CB504000D001600002E15D0012E0AD0022E12D13D482060F6
S22001119C3D4860603D48E0623D48A06412E03D4820603D4860603948E06239481C
S2200111B8A06409E0C04634482060344860603848E0623848A064C046C046374819
S2200111D4A0603748E06037482061374860613748A0613748E0613748206237483A
S2200111F060623748A062374820633748606337482064374860643748E0643748CE
S22001120C2860374868603748A860684601F0F3FF174802F03EF8154802F03EF8CD
S220011228324802F03EF8684601F0F9FF7CBD10B504002C222100134810F0B6EEFB
S22001124410BD0A4808380068704700B5FFF7F9FF00BD002005491B310978012945
S22001126000D1012070470000655A01B001000200685A01B0E05F01B0D10200B06A
S22001127C850300B0100100300002003080F0FFFFA85F01B0510900B0BD0800B000
S220011298610A00B04F0A00B0CD1000B0AD0A00B0A50800B0850800B0450800B085
S2200112B4F50700B0E70700B08B0700B0AF0600B0010200B0670600B0ED0500B0B5
S2200112D0A50400B0770400B0710400B0BD3000B06F0400B0530400B0250400B0B3
S2200112ECD10300B0B50300B0270100B0EF48808901210843ED49888108000088A0
S2200113084008400008800800408801210843E84948800800408802210843E54911
S22001132448801D20888008004088012149020843E04948800220C8829620488235
S22001134008004088012149028843DB494880DB484078012807D108004088FF21CB
S22001135C491C0843D54948802BE0D4484088012149020843D14948803F208882E7
S2200113780800808AFF21491C0843CD4988820800808A012149020843C94988826B
S2200113940800808A012189020843C649888208004088012149028843C249488039
S2200113B008004088FF21491C8843BF494880BF48407A012806D1BC48008B0121B9
S2200113CC0843BA49088305E0B848008B40084000B6490883B548C0881F21090214
S2200113E88843FF30401CB249C8800800C08801210843AF49C880B048B049488094
S2200114040800008804218843AD490880A9480088FF21491C0843A74908800800FF
S220011420008801210843A44908800800408B7047A548006940084000A349086183
S22001143C08000069A2490843A049086101208003A0490862A04840880121490281
S22001145888439E4948800120C0059B49486240129949803108629948C0880221E9
S22001147408439749C8800800C088022188439449C8800120C00591498031486265
S2200114908D4800690121090308438B490861704700208D490870491C087070478D
S2200114AC022811D18249097A012906D17F49098B012211437D4A118317E07C49D9
S2200114C8098B490849007A4A118310E07949497A012906D17649098B012211433C
S2200114E4744A118305E07349098B49084900714A1183704700207047C0466E482C
S220011500C08902210842FAD04803714908627049803108626C4800694008400061
S22001151C6A4908610800006969490843674908610120C0056749486264480069B5
S2200115380121090308436249086101204003C86002206349C91E087049205C493D
S22001155448800120C0055D49803148625B49486054484089012108435249488144
S2200115707047012080035649086255498031086251480069400840004F490861B1
S22001158C080000694E4908434C4908610120C0054C49486249480069012109039F
S2200115A808434749086101204949C91E08704248424948803E4840890121084332
S2200115C43C49488101208003404908607047012080033E4908623B4800694008A2
S2200115E04000394908610800006938490843364908610120C0053649486233480F
S2200115FC006901210903084330490861704710B50B68042B01D9042200E00A6899
S220011618002A17D00AE003681B78254CA38303685B1C03600B685B1E0B60521E14
S220011634002AF2D10123274C641E23701D4BDB8B012423431B4CE38310BD1CB537
S2200116502148801E0078401C1F49891E087008000078042803DB0220FFF7C1FAB9
S22001166C0FE0684601F0C7FD1848401C0078012804D103221649174801F034FDD3
S220011688684601F0CCFD1CBD1CB5684601F0B5FD01200F49491C08700020C91E80
S2200116A4087003220C490D4801F020FD684601F0B8FD1CBD00020030EC5F01B074
S2200116C0B7050000300200300024002E0410000080F0FFFF100100308A5A01B040
S2200116DC4F1600B0881300001CB5684601F08BFD032001F00EFD0020374908700D
S2200116F8684601F094FD1CBD1CB5684601F07DFD3248801E0078002806D03048D7
S220011714801E0078401C2E49891E0870684601F080FD2B48801E0078032803D107
S2200117300120FFF75CFA0FE0684601F062FD2548401E0078012804D1042223496A
S22001174CC82001F0CFFC684601F067FD1CBD1CB5684601F050FD1C48401E007804
S22001176800280BD101201949491E08700020491E087004221649C82001F0B6FCEA
S220011784684601F04EFD1CBD1CB5684601F037FD0F48401E0078012806D104208B
S2200117A001F0B5FC00200B49491E0870684601F03AFD1CBD1CB5684601F023FDF3
S2200117BC00200549891E0870684601F02EFD1CBD0148001F007870478B5A01B0AE
S2200117D8011700B07047704710B5E9480078002823D102F09EFD012805D1E54975
S2200117F40870002001F0F2FF20E0E248401C007803280AD100F0FAFE012817D15C
S2200118100220DD490870012001F0E2FF10E0FFF716FD01280CD10220D74908704A
S22001182C01F0D8FF06E0D5480078032802D00320D2490870D148007810BD10B581
S22001184801F0ADFD0400002C10D1CD48401C0078032805D1002000F09BFD00F050
S22001186437FA0BE00020FEF7EBFFFEF753FC05E0002002F033FB002001F0EFFFDF
S2200118800020C149491C087010BDBF48401C0078002800D170470120FCE70028BB
S22001189C02D10321B94A1170B849491C08707047FFB581B015001C00002609E0F5
S2200118B80C207043B3490F5823002A0001980299B847761C022EF3DB05B0F0BD5A
S2200118D40100002070470A207047F3B581B00D00002700260CE050207043A84906
S2200118F040182900426B019890470400012C00D12700761C022EF0DB3800FEBD8F
S22001190C10B5002406E0502161439E4A8918C86A8047641C022CF6DB10BD70B5E2
S22001192804000D00002608E050207043964940182900426A20009047761C022E96
S220011944F4DB70BD10B5002406E0502161438F4A8918C8698047641C022CF6DBB0
S22001196010BDF8B504000127002600206072002507E08548C01F405D012801D058
S22001197C012602E06D1C022DF5DBC046002510E0002E06D0012E0BD17C48C01FEB
S220011998405D012806D07A48C01E0078401C7849C91E08706D1C022DECDB002559
S2200119B413E0002E06D0012E0ED17248C01F405D012809D050206843704A801867
S2200119D08169200088476C49C91F48556D1C022DE9DB002507E06848C01F405D2E
S2200119EC002801D1002702E06D1C022DF5DBC0463800F8BD70B50400002507E026
S220011A0850206843604A80188168200088476D1C022DF5DB70BDF8B504000026FB
S220011A2400275848401C0078032835D100F0EAFD00282CD1FF20401C01F03FFB32
S220011A400500002D22D02560002252480168280000230CF00BF880190604360C87
S220011A5C20688519684600F0B3FC070009E00098007828706D1C0098401C009050
S220011A78701C0604360C3800791E0F043F0C0028EFD11CE001F06CFB19E02000F2
S220011A9402F0E9FA060014E0FFF7DBFB00280CD13C4800682060256803E06D1C2B
S220011AB0701C0604360C28780028F8D103E0200002F0D3FA06003000F8BD10B539
S220011ACC04002E48401F0078502358432D4A11582000884710BD70B504000D00C7
S220011AE82C4820602C4860602C48A0602C48E0602C4820612A4860612B48A061F0
S220011B042B48E061274820622A4860622548A0622948E0622348206328486063A3
S220011B202148206460642748A0642748E06427482860274868601C48A8601348D7
S220011B3C401C0078032804D11149124800F016FD04E000220E490F48FFF716FB41
S220011B580C490C310C48503002F014FB70BD10B50748401C0078032803D1184890
S220011B7400F038FD02E01648FFF75BFB144802F038FB10BD935A01B0B06001B0F1
S220011B90106001B09C5A01B0985A01B0CB1A00B01F1A00B0011A00B0BD3000B0E2
S220011BAC113800B0631900B0491900B0271900B00D1900B0DF1800B0DB1800B0D0
S220011BC8D51800B0AD1800B01D3800B01C4A01B010B53C490868804710BD10B5BA
S220011BE404003A480078401C3849087008000078022806D100200870334841684F
S220011C002000884702E031490868804710BD70B504000D002D4829008268200095
S220011C1C904770BD70B5332000F088FF05002948401C0078401C2749491C0870C0
S220011C38080004782900332000F08DFF2248801C0078844208D100201F49491C04
S220011C540870491C08701C49C868804770BD10B504001A48001D0078401C184913
S220011C70091D087008000078022803D11348C1692000884710BD10B504001048D4
S220011C8C016A2000884710BD70B51C2000F04EFF05000C48C01C0078401C0A4915
S220011CA8C91C08700800047829001C2000F053FF022C06D100200449C91C0870C3
S220011CC40149486A804770BD106501B08E5A01B0EF48008840084000ED4908804A
S220011CE070471CB5684601F08CFAEB480078C007C00F4DD1E848C01E807814219B
S220011CFC084213D0E548007801210843E3490870C81E8078142108404000E0491F
S220011D18C91E8870684601F082FA00F019FE33E0DB48C01E8078C007C00F0ED028
S220011D34D848007801210843D64908700220C91E8870684601F06DFA00F0FAFD03
S220011D501EE0D148007880218843CF49087001F0E1F9684601F05FFACB48007898
S220011D6C202108420ED0C94800788843C7490870C7484069002803D0C54948699E
S220011D88804701E001F0ECF9684601F048FA1CBD1CB5684601F031FABD48C01E83
S220011DA48078142108420DD0BA48C01E807808404000B849C91E8870684601F0EA
S220011DC032FA00F0C9FD30E0B5484068002808D0684601F028FAB249091D081F61
S220011DDC00F094FD23E0AD4800781021084213D0AA48007811218843A8490870C6
S220011DF8684601F014FAA748C068002803D0A549C86880470DE001F0ABF90AE0B9
S220011E14A0480078400840009E490870684601F000FAFFF75CFF1CBD9A490C397A
S220011E300860704770B50120FFF7F8FF00F043FD04009448408B05062D0E934842
S220011E4C08300088401C91490831088090488068002805D08E48210082682800F7
S220011E68904701E001F07CF970BD704702000020704730B58478894D2C70C478EE
S220011E846C700479AC704479EC70C4792C71047A6C714478AC710C787E4DED1E46
S220011EA02C704C786C7044786D1F2C7000246C70AC70847AEC7000242C7130BDDC
S220011EBC010000207047282070477047F3B581B00C00002500267448C0786B46A1
S220011ED818707248807858707048407898706F480078D8700199C807C00F0DD0E2
S220011EF4681C05062D0E207800F0EFFC002805D020786B461870701C0606360EE5
S220011F100220019901420BD0681C05062D0E6078022805DC60786B465870701C4B
S220011F2C0606360E0420019901420BD0681C05062D0EA078012805DCA0786B46B2
S220011F489870701C0606360E0820019901420BD0681C05062D0EE078012805DC87
S220011F64E0786B46D870701C0606360EB5420BD16B4618784A49C8705878887087
S220011F8098784870D8780870012700E000273800FEBD0120800344490862444866
S220011F9C408801214902884341494880704710B53B48406A002803D03949486AF9
S220011FB8804701E001F0D4F810BD10B534480A30008833490831098888420AD1E7
S220011FD431488069002803D02F498869804710E001F0C0F80DE02B4808300088A5
S220011FF029490A310880002200217D20800101F0D0F8FFF7DEFF10BD10B52348B0
S22001200C0830008821490A310880002200217D20800101F0C0F8FFF7CEFF10BD2B
S22001202810B51E480078012828D11948C01E8078142188431649C91E8870080054
S22001204480780221084221D101F075F8114800788021084208D00F48C01E807804
S220012060012108430C49C91E887011E00A48007881210843084908700220C91E43
S22001207C887000F061FC05E003488089400840000149888110BD000000020030EA
S220012098F05A01B0C86001B0F46001B0FC5A01B080F0FFFF100100301CB5FC4882
S2200120B4007801282FD1684601F0A1F8F948807840084000F74988700800807838
S2200120D0202108421ED101F030F8F348C01C0078C007C00F06D0F04880781021FF
S2200120EC0843EE4988700FE0EC48C01C007881210843EA49C91C08702020C91E3D
S2200121088870684601F08BF800F022FC684601F086F81CBD10B5E1480078012808
S22001212427D1E048807840084000DE498870080080780221084222D000F0FDFF8F
S220012140D948C01C0078C007C00F06D0D648807804210843D449887013E0D348F3
S22001215CC01C007881210843D049C91C08700820C91E887000F0F2FB05E0CD48CC
S220012178808901210843CB49888110BD7CB504000D002C40684601F038F8C74859
S2200121942840C449C91D09688143C248C01D0160C2482040BF49C91D096808433D
S2200121B0BD49C91D0860684601F035F8684601F020F8B948C01D0068002801D0F7
S2200121CCFFF7A6FF684601F028F8B448C01D006801218904084201D0FFF764FF33
S2200121E8684601F00AF8AE48C01D0068002801D1FFF716FF684601F012F87CBD12
S2200122041CB5684600F0FBFFA648C01C0078802108420BD0A348C01C00782021C7
S2200122200843A149C91C0870684600F0FCFF0CE0684600F0F8FF9F484069002838
S22001223C03D09D494869804701E000F08FFF1CBD7CB50400606800287ED06846F6
S22001225800F0D3FF9248C01C0078C007C00F0CD08F48C01C0078102108438D4985
S220012274C91C0870684600F0D4FF002569E08848007801283BD18748C01C00786C
S220012290912108438449C91C0870C81E8078142108420CD0804880780840400084
S2200122AC7E498870684600F0B8FF00F04FFB00254BE07A488078C007C00F0ED044
S2200122C877480078217A884209DC022074498870684600F0A4FF00F031FB00251A
S2200122E437E0684600F09DFF72480ECC0EC00C3C01000839081F00F005FB01255E
S22001230029E0607A00280DD06848008A0421084208D000206449C91C087068467A
S22001231C00F083FF022518E06048C01C0078912108435E49C91C0870684600F073
S22001233876FF5F480ECC0EC00C3C01000839081F00E003E000F0DCFA012500E07F
S220012354002528007CBD70470100002070470120800355490862C0464F48408B3E
S2200123704E48C08902210842F8D048034F49803108624A484089012108434849E0
S22001238C4881012080034A4908607047002804D0012807D0022811D10FE00121F7
S2200123A88903444A11620CE03E494989012211433C4A5181012189033E4A1160CB
S2200123C401E000E0C0467047F8B505000026FF20401C00F072FE0400002C60D066
S2200123E02C60002236480168200000230BF03EFB80190604360C286884192A484B
S2200123FCC0784B235B015843009001222E48016820006B460BF02CFB80190604FA
S220012418360C286884192148407880002849431801222848016820000BF01CFB98
S22001243480190604360C28688419194880788000224943180122224801682000BF
S2200124500BF00CFB80190604360C2868841900221D480168200000230BF000FB2D
S22001246C80190604360C286884190B48007880001749431801221748016820002B
S2200124880BF0F0FA80190604360C286884190348807980001149431822E02BE0B5
S2200124A4FC5A01B0ED5A01B00002003001000700C86001B0F46001B080F0FFFF91
S2200124C0A05A01B0A45A01B0C05A01B0A85A01B0C85A01B0AC5A01B0B05A01B0DD
S2200124DCD45A01B0B45A01B0DC5A01B001224848016820000BF0BCFA80190604C9
S2200124F8360C0BE04448006828602C6803E0641C701C0604360C20780028F8D1C1
S2200125143000F8BD10B5040000203D4908700820C91E88703B48C91D08600020E1
S2200125303A49486000F0AAF900F0A6F83848408801214902084336494880364878
S22001254C408920210843344948810120C0043349486033484068002805D0314830
S22001256841682A480838884701E000F0F9FD10BD7CB504000D002C4820602C48E9
S22001258460602C48A0602C48E0602C4820612C4860612C48A0612C48E0612C4885
S2200125A020622C4860622C48A0622C48E0622C4820632C4860632C4860642C485B
S2200125BCA0642C48E0642C4828602C4868602C48A860684600F017FE2A4800F078
S2200125D862FE2A4800F062FE684600F020FE7CBD10B504002C2221000E480FF03D
S2200125F4DEEC10BD06480C380068704700B5FFF7F9FF00BD00207047B85A01B083
S220012610BC5A01B0F05A01B001000100F46001B0100100300002003080F0FFFFFE
S22001262CC86001B0192500B0CD2300B0992300B0632300B05D2300B05B2300B025
S2200126484D2200B0E31C00B0052200B0852100B0092000B0AB1F00B0931F00B0C0
S220012664C91E00B0C71E00B0C31E00B0BD1E00B07B1E00B0751E00B0731E00B03F
S220012680351E00B0991D00B0C046B849C98910221142FAD1B5498989012211439F
S22001269CB34A91811100098849084900118011000988FF22521C1143AD4A118033
S2200126B811004988490849005180AB494978012906D11100498808221143A64AAD
S2200126D4518005E0A449498808229143A24A5180A1494988102291439F4A51803A
S2200126F09F498978022906D111004988C02211439A4A518016E09A49897801290C
S22001270C0CD19749498880229143954A51801100498840221143924A518005E0CD
S22001272890494988402291438E4A5180002010E081008E4A515C8C4AD2789142FD
S22001274406D181008A4A89184988874A918004E0411C0806000E0A28ECDBC04697
S2200127600A2804D1834918314988804A918080498979012907D17D494988FF220A
S22001277C521C11437A4A51802BE079494988012252021143764A51803F21918277
S2200127981100898AFF22521C1143724A91821100898A0122520211436E4A91828F
S2200127B41100898A0122920211436B4A918211004988012252029143674A51805D
S2200127D011004988FF22521C9143644A518064490979012906D16149098B022291
S2200127EC11435F4A118305E05D49098B022291435B4A11835B49097801290CD1BE
S2200128085849898949084900564A91811100498820221143534A51800BE0524943
S220012824898901221143504A918111004988202291434D4A51804C49C9881F22D6
S22001284012029143FF31491C484AD1801100C98801221143454AD1801C2111818E
S22001285C0021464A51801100098804229143434A11803F494989012211433D4AC6
S220012878518111000988012211433A4A11801100498B7047012080033A49086211
S2200128943A48408801214902884338494880012080033549803108623448C08856
S2200128B0022108433249C8800800C088022188432F49C8807047294909891C22DE
S2200128CC114201D0012000E000201C21244A1181704710B501000120002208E0C0
S2200128E89300224CE35C8B4200D104E0531C1A06120E0A2AF4DBC0460A2A00D14F
S220012904002010BD10B50B68042B01D9042200E00A68002A13D00AE003681B7816
S220012920124CA38303685B1C03600B685B1E0B60521E002AF2D10D4BDB8B012435
S22001293C23430B4CE38310BD1120094988830800C08B012108430649C8837047EA
S2200129581320044988830800C08B012108430149C883704700020030FC5A01B08D
S220012974484A01B03002003080F0FFFF1001003008E00160001D0160001D0160A8
S220012990001D0160001D521E002AF4D1704702E00160001D521E002AFAD17047F8
S2200129AC10E00B680360001D091D0B680360001D091D0B680360001D091D0B685B
S2200129C80360001D091D521E002AECD1704704E00B680360001D091D521E002AA2
S2200129E4F8D17047F7B5009C0298002801D10098FEBD01980606360E0420001BFA
S220012A008507AD0F05E02670641C0298401E02906D1E002D02D002980028F4D1D6
S220012A1C3006310408433102084307003743029805092D012A0939002000FFF78B
S220012A38A5FF64190298401B029002988508AD00AA0839002000FFF7A6FF6419DD
S220012A540298401B029004E02670641C0298401E029002980028F7D10098C1E78B
S220012A70F7B51400009E019F002C01D10098FEBDB007800FB907890F884222D19A
S220012A8C0420801B8507AD0F05E038783070761C7F1C641E6D1E002D01D0002C88
S220012AA8F5D125092D012A0939003000FFF77AFF76197F19641BA508AD00AA082D
S220012AC439003000FFF785FF76197F19641B04E038783070761C7F1C641E002C58
S220012AE0F8D10098CBE770B504000D0016002A0031002000FFF778FF70BDFFFF62
S220012AFC10B511F0CCE80400200010BD10B50400200011F0CEE810BD10B501001A
S220012B18144A154B1B681804000C13000B40124C236010BD0F490A0082430F4BA5
S220012B345A60704730B501004A11CD06ED0E0124AC40230094000A4D2C592468CF
S220012B502000184094000C352C59236030BD10B542119300034CE358196010BDA6
S220012B6CFFFF0000C0F1FFFF704A01B010B50C4B0C4C23600C4BDB8B0C4CA3423E
S220012B8801D10C4803E00C480C4B074C23600C490C4A03E003680B60001D091DFA
S220012BA49142F9D110BD000000EC02F0305B01B0E0FF01B0C35A000000ED02F0FF
S220012BC000ED0AF000EC0AF000940440649C04400120F44908807047020000204B
S220012BDC06E00B781370491C521C431C1804000C0B78002BF5D17047F3B587B087
S220012BF80020069005900024E9490898FFF7E8FF05900698059940180004000C64
S220012C1406900898059940180890E3490898FFF7D9FF0590069805994018000413
S220012C30000C06900898059940180890DC490898FFF7CAFF059006980599401805
S220012C4C0004000C06900898059940180890D6490898FFF7BBFF05900698059952
S220012C6840180004000C06900898059940180890CF490898FFF7ACFF0590069892
S220012C84059940180004000C06900898059940180890079800287DD1C74F01AA8E
S220012CA039000820BDF067FB0600002E5BD10298032839D8012269462E2092F0CA
S220012CBC48FB6B461878012806D002280AD003280ED0052818D111E0BA490898BC
S220012CD8FFF77EFF059017E0B8490898FFF778FF059011E0B6490898FFF772FF41
S220012CF405900BE0B4490898FFF76CFF059005E0B2490898FFF766FF0590C04635
S220012D10C0460698059940180004000C0690089805994018089022E00198851CF7
S220012D2C0298801E202801D92220029000240FE0285DFF2800D10FE0285D0899B2
S220012D4808700898401C08900698401C0004000C0690641C0298801EA042EBD860
S220012D6403E000210B200AF0F6FA0820BDF050FB97490898FFF72EFF059006983E
S220012D80059940180004000C069008980599401800E001E008900EE08F49089840
S220012D9CFFF71CFF05900698059940180004000C06900898059940180890894935
S220012DB80898FFF70DFF05900698059940180004000C069008980599401808905A
S220012DD482490898FFF7FEFE05900698059940180004000C06900898059940181B
S220012DF00890079800286BD17A490898FFF7ECFE05900698059940180004000CAA
S220012E0C0690089805994018089074490898FFF7DDFE0590069805994018000485
S220012E28000C069008980599401808906D490898FFF7CEFE059006980599401877
S220012E440004000C069008980599401808905A4F3F1D01AA39000820BDF08BFA55
S220012E600600002E60D1029803283ED860490898FFF7B2FE0590069805994018F8
S220012E7C0004000C06900599C81E089940180890012269462E2092F05CFA6B46D0
S220012E981878012806D002280AD003280ED0052819D112E051490898FFF792FEB3
S220012EB4059013E04F490898FFF78CFE05900DE04D490898FFF786FE059007E00E
S220012ED040E04B490898FFF77FFE059000E0C046C0460898C01C089022E00198E9
S220012EEC851C0298801E202801D92220029000240FE0285DFF2800D10FE0285DF1
S220012F08089908700898401C08900698401C0004000C0690641C0298801EA042C0
S220012F24EBD803E000210B200AF015FA0820BDF06FFA27490898FFF74DFE05906C
S220012F400698059940180004000C06900898059940180890069809B0F0BD70B5DE
S220012F5C294CA11C0020FFF747FE0600B01C05042D0C0020207065702A002100E2
S220012F7801209FF052F9224CA11C0120FFF736FE0600B01C05042D0C0020207002
S220012F9465702A00210002209FF041F970BD0000345B01B0884A01B0904A01B095
S220012FB0984A01B0A04A01B0AC4A01B03A230000044B01B01C4B01B0104B01B0A9
S220012FCC284B01B0FC4A01B0D84A01B0444B01B0B44A01B0BC4A01B0C84A01B08C
S220012FE8EC4A01B0D04A01B0344B01B0DC4A01B0E44A01B0E04A01B0E84A01B071
S220013004006101B0006201B010B5FFF7A4FF10BD704710B522480088012800D0F3
S22001302010BDFFF7F7FFFFF7F1FF02201D490880F6E77047F8B506000C0022006A
S22001303C002104206B4611F054E8230017493000009A92F01EFA07003A003000E7
S2200130580099A1F095FA05062D0E009811F046E82800F8BD0200002006E00B7828
S2200130741370491C521C431C1804000C0B782C2BF5D1704710B50023C04606E032
S2200130900C780470491C401C5C1C23041B0C9342F6DB10BD345B01B089450AB064
S2200130AC10B5614C0EC80EC408C808C4103810BD70470100002000290FD05C4AB1
S2200130C81288521801235B029A4208DC594A584B1B88D018564A12885218554B8C
S2200130E41A807047002053490880704770B504000D0016004E488068002805D0B7
S2200131004C483200290083682000984770BD10B504004848C068002803D046489D
S22001311CC1682000884710BD10B543484068002804D04148002142680720904766
S22001313810BD10B53D480068002804D03B48002102680720904710BD10B53848DC
S2200131540068002804D03648002102680120904710BD704710B5002113200AF05D
S220013170CBF810BD00203049491E087030490876704700B500202C49491E08705E
S22001318C491E0870091F0860FFF7EEFF0120C0042949086000BD10B5244B9B1E66
S2200131A81A701B1F19600123214C641E23702A234343DB08204C203C63630323B8
S2200131C41E4C2376002A05D1C0461A4B5B1E1B78002BFAD110BD10B5FFF7CAFF28
S2200131E01548801E007801280AD100201249891E0870081F0068002802D0081F0C
S2200131FC0068804710BD10490968212292031140016011000C4A116211004968C5
S2200132180B4A114041601100084A51627047074A0168116041685160704770478D
S220013234006301B03E5B01B0106301B02035002A80F0FFFF8001880010B5FFF745
S220013250F0FF17480068804710BD10B51548C088022108431349C8800800C08846
S22001326C022188431049C880FFF7DDFF0F480068804710BD10B5FFF7D6FF0D48A7
S2200132880068804710BD0C48074908600849086008490860704704490860704787
S2200132A4044908607047044908607047405B01B010010030445B01B0485B01B0FF
S2200132C0BD3000B0FC4A10707047FC49098A0422114201D0012000E000207047D8
S2200132DC70B50125002001F016F8F648008A0821084206D10024F1480078022855
S2200132F809D0002507E0EF48008AC007C00F01D0022400E00124012D23D1EB4827
S2200133144030408B10210843E84940314883E748008908210843E549088100226E
S22001333000210120FFF735FFE148008E29030843DF49088608004030408B1021B7
S22001334C88430104090CDB484030418323E0D9484030408B10210843D6494031B8
S2200133684883D548008908218843D3490881002200210120FFF711FFCF48008E2A
S220013384012109030843CD49088608004030408B102188430104090CC848403031
S2200133A04183200070BD10B50024C6480078002863D1FFF793FFC4490870BF481B
S2200133BC0478022C01D1002008700020C0490870BE480078022803D1FFF779FF50
S2200133D8BC490870032C27D1B9480078012803D10320FEF756FA32E0B5480078CA
S2200133F4022807D1B4480078002803D10120FEF74AFA26E00020FEF746FAAE489A
S2200134100078002802D100F0DDFA1CE0AA480078012802D1FEF74FFD15E0FDF7D4
S22001342C20F812E00020FEF732FAA4480078002802D100F0C9FA08E0A0480078D9
S220013448012802D1FEF73BFD01E0FDF70CF89C480078002803D0FEF714FA0128DD
S22001346403D1012000F0F9F902E0002000F0F5F90120934908709348007810BDFA
S22001348010B50024FEF701FA00280BD18E480078002807D000208C49087000F0A3
S22001349CEAF900F099FA0124200010BDF3B585B0002004901422874806990EF063
S2200134B87CED85484068002801D1FFF751FE824841680391C068039947187F48E4
S2200134D4008903994418390005980FF0B2EF0004000C0290390005980FF0AAEFCF
S2200134F00804000C019002986043009074480068002805D0724800680099401810
S22001350C704908606F48008A0299884242DD6D48008A0299401A6B4908820198AC
S220013528039988421AD301980399401A0004000C01906548C0680199461AFF2010
S2200135446349087063484068002806D061483100426800209047049023E0FFF7E8
S22001356003FE20E0019803990E1A59480068002804D0574800680199451800E008
S22001357C002500205449087054484068002806D052483100426828009047049089
S22001359805E0FFF7E5FD02E000204B490882049807B0F0BDF8B504000D00160060
S2200135B448480068002807D046483200290007682000454BB84701E0FFF7CCFD57
S2200135D0F8BD70B50400FEF758F9012804D13E492000FEF77EFA27E037480078A5
S2200135EC002804D0012807D002280BD109E03749200000F0C5FD18E034492000EB
S220013608FEF7B6FF13E0C0462E480078002807D030480078002801D1022502E01D
S220013624012500E000252A002A492000FDF7A8FDC046C0462948A0632948E063CF
S22001364070BD7047F1B50098012803D10020204908826AE01E48C068002804D062
S22001365C1D480078C0431C4908701B48007800284FD11848008A401E164908823B
S2200136780800008A00283BD008004068002801D1FFF76EFD1048446800890519B5
S2200136940E480068002804D00C48006840190B4908600A48076826000A484068A8
S2200136B000281ED0084817E0515B01B000020030000000304D5B01B04E5B01B029
S2200136CC4F5B01B0486501B0505B01B03C6501B04C5B01B0AD3500B0A93400B0FE
S2200136E831004268380090471BE0FFF739FD18E04A48806A002803D04849886ABD
S220013704804710E0FFF72EFD0DE04648C66846484068002805D044483100426888
S2200137200020904701E0FFF71FFDF8BD30B58BB004002C2221003B480EF03AECAE
S22001373C002504E03848405D694648556D1C282DF8D338480A90FEF79AF8012886
S22001375802D1FEF704FA16E034480078002804D0012806D0022809D107E068460B
S22001377400F03FFD08E06846FEF734FF04E0C0466846FDF756FDC046C0460BB0A3
S22001379030BD704710B50400FEF777F8012803D1200000F030FD06E02248007844
S2200137AC002802D1200000F028FD10BD10B5FFF7F4FD002803D100F0A2FD0400C3
S2200137C808E0FFF7ECFD022803D1FDF7FBFF040000E00124200010BD1449087061
S2200137E4704710B504000E48C069002804D00C48C1690120884701E0FFF7B4FCD3
S22001380010BD02000020704701000020086070470100002070470100022070470E
S22001381C0200002070470000106501B0486501B03C6501B0453600B04E5B01B056
S220013838EB490870704710B509F0C8FC09F0D0FB0020E7490831086048601531E6
S22001385408700220FFF7EEFF10BD10B50400002C02D109F0B9FC01E009F0BAFC02
S22001387010BD10B509F0BEFC002806D009F0AAFCC04609F0B7FC0028FBD110BDE1
S22001388C7CB5040000256846FFF7B5FC8020044212D0E007C00F02D001200543B2
S2200138A801E06D086D000220044201D005430FE002212800884305062D0E09E086
S2200138C40420044201D0054304E004212800884305062D0E280009F04DFC684605
S2200138E0FFF7A1FC7CBD70B504000025012C06D10420054380212800884305069D
S2200138FC2D0E2800FFF7C4FF70BD70B504000D000126B64818300068002812D04C
S220013918B3480830046045600020B14918310860B0484078AF490978884205DBB3
S2200139342900200009F00DFB00E00026300070BDFFB581B0040015001E0029007F
S220013950012009F0D4FB29005131022009F0CFFB2900A231032009F0CAFB2900D6
S22001396CF331042009F0C5FB2900FF314531052009F0BFFB0120994910310870D5
S220013988A079487001208870A07AC87000200871627B0092237BE27A0F00F9785F
S2200139A4307809F0B4FB05B0F0BD01000020002906D18C4A10325278012A00D150
S2200139C0012000E0C046C04670470A20704786480078704710B5FFF7FAFF04008B
S2200139DC0020FFF72BFF012C01D109F087FC10BD10B507F014FB7F48006800281F
S2200139F804D007F04FFC00207B49086010BD02000020704710B509F0D9FB10BD46
S220013A1410B57748406A002803D07549486A804701E0FFF79FFB10BD10B5714874
S220013A308069002803D06F498869804701E0FFF793FB10BD1CB509F0DBFB002826
S220013A4C1ED009F0CDFB09F0CFFB002806D009F0BBFBC04609F0C8FB0028FBD183
S220013A686846FFF7CAFB62480078012802D109F0D4FB02E05F48604908606846A5
S220013A84FFF7CFFB09F0ACFB1CBD10B50400200009F076FB10BD7CB504000D0085
S220013AA000262C406846FFF7ACFB4F4820300068A8434D4920310860080000682E
S220013ABC204308606846FFF7B0FB6846FFF79BFB464820300068012109040842D5
S220013AD802D00120064301E0760876004048203000684649084202D00220064365
S220013AF404E00221300088430606360E802006433000FFF7C1FE6846FFF78BFB66
S220013B10022120000840FFF7BAFFFFF793FF7CBD10B534484069002803D0324938
S220013B2C4869804701E0FFF719FB10BD7047F8B5040025681BE03149606888424B
S220013B4801D9080000E060680604360C6A463100280009F0BCFA6B461888002854
S220013B6406DD18882D1819886068401A606002E0052010F0C2EA60680028E0D1A0
S220013B80F8BD10B504002000FFF7D7FF1948C068002803D01749C868804701E0FD
S220013B9CFFF7E4FAFFF750FF012010BD1CB501200E49183108606846FFF725FB42
S220013BB80B48C01C0078002802D1012009F0D0FA6846FFF72CFB0948806A002837
S220013BD404D00748816A0120884701E0FFF7C2FA1CBD00005C5B01B05C6501B08B
S220013BF0805B01B0E06501B0845B01B023D200B08C5B01B001000600FFFF00005F
S220013C0C0100022901D2002000E0012070477CB504000D006846FFF7EEFA002DC4
S220013C2805D0ED4800782043EB49087004E0EA480078A043E8490870E748007828
S220013C44002802D0FFF777FA01E0FFF769FA6846FFF7E7FA7CBD70B5E14800783F
S220013C60E0494978401A05042D0C0A2D00DD0A25DB4815384068A84239D9D94844
S220013C7C1538006800281BD0002416E0D6484178801C405CD349153909680870E2
S220013C98D14815380068401CCF4915390860CF484078401CCD494870601C040495
S220013CB4240CAC42E6DB04E0C94840784019C8494870C64815384068401BC449D5
S220013CD015394860C3484078C2490978884241DBBF4A153A5168106809F02AFA01
S220013CEC3AE0BC481538006800281ED0002416E0B9484178801C405CB649153974
S220013D0809680870B44815380068401CB24915390860B2484078401CB049487033
S220013D24601C0404240CAD4815384068A042E3D807E0AB484078A94915394968BF
S220013D404018A84948700120A549491F0860A648806A002804D0A448816A0020B6
S220013D5C884701E0FFF702FA70BD10B59E4840789D490978884230DA09F06DFA78
S220013D78002826D19848401E0078012802D002281DD114E096488068002808D087
S220013D9493494B78891CC85C92498A680021904701E0FFF7DFF98E484078401C47
S220013DB08C49487008E08A48401F0068002801D1FFF74BFF00E0C046C04601229A
S220013DCC87496420FFF7E7F905E000210220FFF71EFF09F034FA10BDFEB50024A5
S220013DE80025002680480068002805D07E48016800208847040001E0FFF7B2F99D
S220013E047A484069002804D0784948698047060001E0FFF7A7F9002E09D1032C48
S220013E2003D1012500F0D5FF25E0002500F073FD21E0002C1CD100256D4880695B
S220013E3C00280CD06B488068002808D0694881682800884707006748816938005C
S220013E5888476548C069002803D06348C1690020884700F054FD02E0012500F0AB
S220013E74AEFF5E488068002808D05C488168280088470290029808F0B1FE01E0B9
S220013E90FFF76AF9012D03D1012008F0D6FE0EE05348C068002808D05148C16855
S220013EAC280088470190019808F0C9FE01E0FFF755F908F00FFF4B4800690028C5
S220013EC803D0494801692800884709F045F901210220FFF79EFEFEBDFEB5040094
S220013EE409F082F909F084F9002806D009F070F9C04609F07DF90028FBD10120E8
S220013F00374919390870481E0078002861D1002C04D0012C08D0022C59D144E09C
S220013F1C002009F023F909F005F953E02D48401E047000210220FFF772FE002014
S220013F3809F016F909F0F8F800F0E9FC00F064FF01A8FFF75AF907F06FFB0500F6
S220013F54002D05DDFFF744FF01A8FFF762F91FE001A8FFF75EF9214840690028DA
S220013F7013D01F494869804706001D488068002808D01B488168300088470700C7
S220013F8C380008F02FFE04E0FFF7E8F801E0FFF7E5F8012009F0FEF814E0012122
S220013FA80220FFF736FE002009F0F6F800F02CFF002009F0D5F809F0B7F800F00B
S220013FC4E8FE0648401E047000E0C046C046002002491939087009F003F9FEBD04
S220013FE0795B01B05C6501B0E06501B0673D00B00C6601B070B509F078F80400C9
S220013FFC002C0BD0CF48057800780019CD490870891C4819210009F095F80EE04E
S2200140180020CA49087009F010F9C84819300078FFF75AFF0122C6496420FFF70D
S220014034B6F870BD10B5012009F094F809F059F807F044FABE480078012801D12C
S22001405009F08AF8BA480078B9494870B9480078012801D1FFF7C6FF10BD0100A2
S22001406C0020B74B0B600A6803E0521C431C1806000E1378002BF8D170471CB550
S2200140886846FFF7BAF809F08DF80400012C0FD16846FFF7C4F86846FFF7AFF886
S2200140A40620FFF732F80622A84919204001FFF71DF806E00120FFF728F80021D8
S2200140C00420FFF7AAFD6846FFF7ADF81CBD70B5040000209B49193108700120EB
S2200140DC091F0860002014390870491E0870954948700870984894491D310860ED
S2200140F8002C19D108F0DBFF05008320FFF7C2FB012D0AD19248C069002804D05B
S2200141149048C1690120884701E0FFF723F808F0D4FFFF2081308C49486020E08D
S22001413009F05CF809F05EF8002806D009F04AF8C04609F057F80028FBD18320B3
S22001414CFFF79EFBFF2081308149486009F038F809F042F80620FEF7D4FF06220E
S220014168794919204001FEF7BFFF79484068002805D07748416871480D308847B3
S22001418401E0FEF7EFFF70BD70B504000D0073482060734860607348A0607348C6
S2200141A0E06073482061734860617348A0617348E06173482062734860627348D8
S2200141BCA0627348E062734820637348606373482064734860647348A0647348EE
S2200141D8E06473482860734868607348A86000F0F5F808F0D1FF7148FFF75BF851
S2200141F470BD10B504002C22210056480DF0D6EE10BD10B50400202221006A483A
S2200142100DF0CEEE10BD10B508F0DCFE00280AD14D48806A002804D04B48816A73
S22001422C0020884701E0FEF799FF10BD10B5012041491531086040480078002800
S2200142480ED1081D0078012802D108F04CFD09E03A4819300078022804D1FFF77A
S220014264D8FF01E0FFF7C4FE10BD10B504003948006A002805D02006000E364A96
S220014280116A884701E0FEF76FFF10BD10B501210420FFF7C2FC0620FEF739FFAF
S22001429C06222C4919204001FEF724FF10BD2648153000680006000E704770B5F9
S2200142B801252248401C007800281FD108F011FF0400002C18D001201C4908704A
S2200142D4002008F047FF08F029FF00F05AFD08F029FF002008F05AFF14490C7099
S2200142F00020487021001248801C08F021FF02E0002500E00025280070BD0E48EE
S22001430C1930007870470C490B39087070470A480B38007870470848C01F0068F4
S220014328704700B5FFF7F9FF0006000E00BD0349C91F0860704700005C6501B083
S2200143445F5B01B0673D00B0484B01B0874000B001000100E06501B080F0FFFF77
S220014360CF4000B06B4000B0E13E00B0394000B00D3C00B0A93B00B0833B00B02E
S22001437C393B00B0213B00B09B3A00B02D3A00B0153A00B00D3A00B0073A00B06C
S220014398ED3900B0D53900B0CB3900B0AF3900B0453900B0073900B0E73800B036
S2200143B4794800B00C6601B0704710B5040028222100F9480DF0F2EDF748F849CB
S2200143D0086010BDF748F549086048608860C860086148618861C86108624862C1
S2200143EC7047F248016A102291430162016A202291430162016A40229143016202
S220014408704770B5EA4CE06A216B05000D4007F092F8012812D1812000010542E2
S22001442404D0C143E16208F064FB1DE00120C003054219D0C143E162042008F090
S22001444039FB13E0DD48054204D0C143E16208F0BFFB0BE00120C002054207D00E
S22001445CC143E162D74807F0CFFA032008F024FB70BD10B5D14C206A0821884351
S2200144782062A06A49010143A162C046E06AFF21491C0842FAD0206C41004908FE
S2200144942164206E410049082166802000594100490880200151A0200059410003
S2200144B04908A020015108F0B6F90021E16261646166C048C049611808600021DD
S2200144CC2162BF492163606AFF21491C0143616210BDF8B5B54E0096009E366A18
S2200144E8009F7F6A35003D40B74E368801273F033E422FD0009E766804273E42A5
S2200145042AD0B34E3678012E26D1002D24D1009E766C31007940009E766E320086
S2200145207A40009E8436366833007B40009EA436366834007C400E0016401E4013
S22001453C2640A64F300038403E00B04208D10126A34F3E70009E366840273E4366
S220014558009F3E60F8BD1CB56846FEF74EFE01209D4908709D480068002802D0C9
S2200145749B48006880470020994908606846FEF750FE1CBD7CB58B4C60680421EA
S220014590084238D0606A88436062606A022101436162206A042188432062002050
S2200145AC8C4908700520FEF7ACFD05228B497D200001FEF797FD656E042005427D
S2200145C806D1E807C00F03D009F08DFB002813D008F012FE00280FD06846FEF72B
S2200145E40EFE7E480078012802D108F018FE02E07D487B4908606846FEF713FEDA
S220014600FFF76DFF03E0206A0421884320627CBD70B5694C6C48083020180068B8
S22001461C202108436949083161180860C046674808302018006810210842F8D054
S2200146386348083020180068202188436049083161180860002063490870206842
S22001465480218843206065480078012808D164484578002D02D106F055FC01E0A0
S22001467006F048FC6068042108420AD0206A0221884320625A48007801280ED1C1
S22001468CFFF727FF0BE0606A022188436062606A042101436162206A022188431D
S2200146A8206270BD10B552483E492831086051484860514888605148C86051487E
S2200146C4086151484861514888615148C86151480862514848620800FFF76FFE34
S2200146E010BD70B5344DFEF7A4FDB6E0286A696A04000C40002C00D1B0E00220B5
S2200146FC044208D02B4909680868804734480078012800D1A4E00420044204D0B2
S22001471825490968486880479CE00820044203D021490968886880471020044264
S22001473403D01E490968486A80472020044203D01A490968486A804740200442F3
S22001475003D017490968486A804701204002044203D01349096848698047012048
S22001476C8002044203D00F490968886980470120C002044203D00B490968C8691D
S220014788804701200003044203D007490968086A8047FF20401C044254D0E86ADA
S2200147A4296B06000E404BE02C6601B0885B01B0BD4300B00000042E2080000087
S2200147C0ACAE01B07020FEFF08100000110800007E5D01B0B15D01B004000100BE
S2200147DCB05D01B0845B01B08C5B01B05F4500B023D200B0865D01B09D5D01B09D
S2200147F8114600B0894500B06F4400B073CB00B00B4400B029DC00B067DC00B022
S2200148146FDC00B081DC00B0EF4300B0F007C00F03D0F2490968C8688047F14823
S220014830064203D0EE49096808698047E86A296B06000E40EB48401C0642E9D1A0
S22001484CEA48044203D0E7490968486A804747E7C04670BD10B5E64CFEF7E5FCB7
S22001486808F096FC01204003E3496118086010BD10B508F008FA08F029FAE04864
S2200148840068E04909684018DD4908600020DD490860DD480068012804D107F0FA
S2200148A0E2FF0020D949086008F02AFD10BD70B5D24DD348281800680400012053
S2200148BC4004044205D0CF4969180860FFF7D6FF05E001204003044201D0FFF759
S2200148D8C3FF70BD10B50400012C02D106F036FF01E006F0A6FE10BDC248016B1D
S2200148F401220A430263816C0522D2040A438264816E28220A438266416AC04A8D
S2200149100A4342627047B9481121090241180968012212049143112212028218E7
S22001492C1160B44960310A009832821811601121090241180968012212041143F7
S2200149481122120282181160704710B5A94B002401200003181800680004000C9B
S2200149640121090359180860012000031818006801210843090359180860A04834
S220014980001F181800680321090288439C49091F591808609A48001F18180068E5
S22001499C202108439749091F591808609548001F18180068102108439249091F79
S2200149B8591808609048001F18180068042108438D49091F591808608B48001F3C
S2200149D418180068800880008849091F591808608648001D181800681021084350
S2200149F08349091D591808608148001D18180068202108437E49091D591808600A
S220014A0C7C48001D18180068402108437949091D591808607748001D181800682E
S220014A280121490308437449091D591808607248001D18180068012149040843CE
S220014A446E49091D591808606C48001D181800680121490408436949091D59182E
S220014A6008606748001D181800680121890408436349091D59180860C046614814
S220014A7C08301818006810210842F8D000206249087018680400E120C000044336
S220014A98F4218C431C60D86A5D490840D862186C01218906014319645A4818186A
S220014AB4006802210843584959180860FFF729FFD86C03210903884301214903C5
S220014AD00143D964D86C012189028843D864D86C49100143D964D86CFF21491C64
S220014AEC8843D864D86C04218843D864D86C41084900D964D86E032109038843DD
S220014B08012149030143D966D86E012149020143D966D86EFF21491C8843D86690
S220014B24D86EC9008843D866D86E41084900D966D86E012189028843D866D86EFE
S220014B4004218843D866586FFF21090488435867D86C10218843D864D86E88431A
S220014B5CD86610BD2648274908314118096802229143244A083282181160224935
S220014B78083141180968490849001F4A0832821811601D49083141180968042241
S220014B9491431A4A083282181160704710B50024FFF7DCFFFFF7D3FE200010BD5D
S220014BB010B500201A49087048701A4908700120194908700020194908600F4953
S220014BCC08601149087001201649087000201649087016490870FFF7DDFF0400F1
S220014BE8FFF782FE200010BD885B01B03088000081E0FFFF0000042E0810000053
S220014C048C5D01B0AC5D01B0905D01B00C070000B05D01B00077FEFF1011000036
S220014C209D5D01B09F5D01B0A05D01B0A85D01B0B15D01B0B25D01B0B35D01B076
S220014C3C10B501207749087008F0A8FA10BD10B5754C606A012149028843606287
S220014C5808F060F908F029F810BD10B56F4C606A012149020143616208F049F90B
S220014C7408F012F8606C0121490588436064606E2021884360660802664961187F
S220014C90086010BD6348644908314118096820221143614A083282181160C046E6
S220014CAC5E4908314118096810221142F8D05B4908314118096820229143584A90
S220014CC80832821811600021564A1170704700B5524BFFF741FF5248001D18181D
S220014CE400680121490388434E49091D591808600021596201204C4908701868ED
S220014D0040210843186000BD0120494908707047002047490870704744490978E1
S220014D1C012901D1012000E0002070473E4900203F4A1278012A01D1012004E0E5
S220014D384A6804231A4200D00120704737483949097801291ED1364908314118D0
S220014D54096820221143334A083282181160C0463049083141180968102211426D
S220014D70F8D02D49083141180968202291432A4A0832821811600021284A1170FD
S220014D8C01688022114301607047234811210902411809680122120491431122DC
S220014DA8120282181160FF212D31112212028218116011210902411809680122D0
S220014DC412041143112212028218116070471448112109024118096801221204BE
S220014DE0914311221202821811604B2189010A00FF3AC13A82181160112109020F
S220014DFC41180968012212041143112212028218116070470448416C0522D2043F
S220014E189143416470470000865D01B00000042E08100000B05D01B0B15D01B0ED
S220014E3410B504000A4821780170002009490870FEF750F9FEF78DF9FEF71FFA86
S220014E50FFF7C0FAFBF75AF9FEF7F1FCFEF791F910BD00004C5B01B04D5B01B06C
S220014E6C10B5FC48FC4908600020FC490860FBF7F5F80EF0F4EE10BD0020F949B3
S220014E8808600120486000208860C86070470F20F549086048608860C8600861FA
S220014EA448618861C86108624862012088620F20C8620863486306208863022070
S220014EC0C8630E20EA49403108604860042088600F20C860086148618861C8613C
S220014EDC052008620F204862082088620F20C862062008630F204863012088636A
S220014EF80F20C863DC498031086048608860C8600861486188610620C861086294
S220014F140F2048628862C862086348638863C863D249C031086048600820886036
S220014F300720C860082008610F20486188610620C8610F20086248628862C86218
S220014F4C086348638863C863C749086048608860C860086148618861C861086259
S220014F6848628862C86208634863042088630F20C8630320BD49403108600F20B9
S220014F8448608860C860086148618861C8610862486205208862C8620120086356
S220014FA048630F208863C86370470020B249486008724861087648623020AF49F2
S220014FBC203108720020AD494863AC4920310876AA4940314860087248610876D6
S220014FD8401EA84908810020088288762120A549203188700020C871401EA2491D
S220014FF44031088100200882887621209E49603188700020C8719C4980310881D0
S2200150100882887620209949A03188700020C8719649C031088108828876202091
S22001502C9349E03188700020C87192490880488088801720C88000200881488100
S22001504888811720C88100200882488288821720C882002008834883888388486D
S220015064C883704700208049086148618861C861086248628862C86208634863DD
S2200150808863C8638049086008627F494031086008627E49086008627C49403183
S22001509C0860086203214907086008627949086008627649486048627449403107
S2200150B848604862734948604862724940314860486203214907486048626F497A
S2200150D4486048626B49886088626A494031886088626949886088626749403147
S2200150F08860886203214907886088626449886088620D206049C860C8625F4937
S22001510C4031C860C8625E49C860C8625C494031C860C86203214907C860C86297
S2200151285949C860C86200205549086108635449403108610863032040025249FD
S220015144086108635049403108610020086303214907086108634D4908610863C5
S220015160FF200F30484948610020486346494031486148630320400244494861DB
S22001517C401C4863401C4249403148610020486303214907486148633E49486146
S22001519848633E4908603E4908603B49C03108607047BE203B494884412048847D
S2200151B4704710B50520394988800A200EF0A0EF374936484030418336483449CA
S2200151D008844884354888843548C8843248103808853148488588850120C88503
S2200151EC00030886102048860020888611200002C886112008872C4848872C48EC
S22001520888870011C8872649234840300180418081804900C1802749018141814A
S220015224204981810021C18101824182818200201949088048808880C8800881A6
S2200152404881888148828882C8820883C8834884802088840020C8840720194919
S22001525C088031E0FC8701B0985B01B09C5B01B00002002A00F8FFFF00F9FFFFFE
S2200152780035002A00D8002CA00000307FBB00000024002E0000F02F4000006096
S2200152940025002E0001F02F00020030000000307F060000111100001441000027
S2200152B0441400001122000021120000011000003C0200300020AA4908808880FC
S2200152CCC880088148818881C881088248828882C882088348838883C8830884F4
S2200152E848848884C884088548858885C885088648868886C886088748878887A7
S220015304C887002199484030018041808180C180018141818181C1810182418274
S2200153208182C182018341838183C1832030018041808180C1800181418181817B
S22001533CC181018241828182C182018341838183C1832030018041808180C1801D
S220015358018141818181C181018241828182C182018341838183C18320300180BE
S22001537441808180C180018141818181C181018241828182C182018341838183B4
S220015390C1832030018041808180C180018141818181C181018241828182C182CF
S2200153AC018341838183C183203001804180018141818181C181018241828182EC
S2200153C8C182018341838183C1832030018041808180C180018141818181C18194
S2200153E4018241828182C1828183C18320304180818001814181C18101828182B5
S220015400C18241838183203001804180C1800181491E0182418200218182491EF2
S22001541C8183C183002120300180491E0181418100218181491E8182C182002198
S220015438018320308180C180018141818181C181018241828182C18201834183E0
S2200154548183C1832030018041808180C180018141818181C18101824182818249
S220015470C182018341838183C1832030018041808180C180018141818181C181EB
S22001548C01824182018341838183C1832030018041808180C1800181418181810E
S2200154A8C1810720314908811F2048810B2088810120C881002008824882888252
S2200154C48885C886088748878887C8870021284840300180C18001814181C18166
S2200154E000202549088025490860486008614861886208632249C88008814880AB
S2200154FC2149088048808880C880088148818881C881088248828882F120C88227
S2200155180020088348838883C883088448848884C88461204002164948801648AD
S220015534C881022088800820088210BD10B500201249088048800520888008207E
S220015550C880002008818881C8814882C88240200882082004494880FFF725FEA2
S22001556C10BD00000003003010140030701400301030003000100030E000003055
S2200155881001003004F00000000000300022274B1A625A629A62521E244B403382
S2200155A41A625A629A62D102002003E00F220A60091D401C6028F9DB002003E05F
S2200155C082001D4B9850401C6028F9DB1B49022005E08200184BD2180A60091D75
S2200155DC401C6028F7DB0022D243134BC0331A605A609A60134A144B1A60144AAD
S2200155F85A609A60DA60134A1A61114AD2435A610D4A10320D4B40331A600D4A6B
S2200156145A609A60DA600C4A1A610A4AD2435A61D217074B403B1A625A629A62A7
S2200156307047000040F0FFFF7C6601B008F4FFFF95AA5A5540F1FFFF5555555575
S22001564CAAAA5555F0B585B00020009008E000980005009A9100534A505000982F
S220015668401C009001200003009A8242F1DB0025002000907CE00620009A504362
S2200156844B490E5A6BE00620009A5043484940188088C007C00F54D0B100444A80
S2200156A05158080D0005A902434A8918890A89020623009A5A433F4BD218928840
S2200156BC1143B2003B4B9950002407E021030143AA023A4BD218A300D150641C85
S2200156D8FF2CF5DD002426E01E216943354A8918062262438F5A13E0A902314AAF
S2200156F48918BA0089581E226A432F4BD21806236343D21892881143AA022A4BBF
S220015710D218BB00D1507F1C1E216943274A89180622624389184988B942E1DC22
S22001572C641C1E216943224A891806226243895A204A9142CED16D1C0CE0B00032
S220015748194908580621009A5143184A891889880843B100144A5050761C062062
S220015764009A5043124940184088B0428BDC0098401C00900620009A50430D49F5
S220015780085A0F49884200D079E70E4804900848800B80030390012002900B4B6F
S22001579C019304980399029A019B0EF092EA05B0F0BD000000C00440A84B01B063
S2200157B800000540044C01B0FFFF0000575555550410000010B501F081FD02F0FB
S2200157D451FF00F005F800F03FF900F0E1F910BD0020614908607047FFB581B0E9
S2200157F015001E000A9F00245C480068002821D10198042806D005280CD00E2897
S22001580C16D00F2815D10FE03B0032002900029800F0FCF804000EE03B00320015
S2200158282900029801F0F0FC040006E000203880002402E0C0464C4CC046C0464C
S220015844200005B0F0BDF7B50D001600002746480068002819D1009B082B02D022
S220015860092B11D100E0C04600F01CFC0400012C02D000F08FFC0400230032004B
S22001587C2900009800F091FB070001E0394FC04619E0009BDB1F0CF096ED0A0E32
S220015898060710110F1313131213C04632002900009800F09DFA070006E0C046E0
S2200158B4C046C046C046C0462C4FC046C0463800FEBD70B505000024EB1F0CF0EC
S2200158D078ED0A0E06070F100D1111110B11C04600F0CCFA040007E0002405E001
S2200158ECC046C046C046C0461E4CC046C046200070BD70B505000E000024082D2E
S22001590804D00A2D07D00C2D07D105E0300000F0ECFA040003E0C046C046134C4D
S220015924C046C046200070BDFFB581B01D000A9E0B9F00240198082804D00A28C1
S2200159400BD00C280BD109E033002A0000970398029900F0F1FA040003E0C0467F
S22001595CC046044CC046C046200005B0F0BD0000A05B01B0FFFF000030B50200B4
S220015978002000230DE05C00344D2C5D944205D15C00641964780C70012004E095
S2200159945C1C23041B0C1E2BEFDBC04630BDF7B584B00025002600272A480390CE
S2200159B002A90498FFF7DEFF0400012C0BD10599069A6B46009101921B7A3A00CC
S2200159CC3100280001F0BBFA0390039807B0F0BDFFB585B00025002600271C4869
S2200159E8049003A90598FFF7C1FF0400012C0CD16B46187B0799089A6B4607C3FB
S220015A043A0031002800069B01F0C4FA0490049809B0F0BDFFB585B000250026D3
S220015A2000270D48049003A90598FFF7A3FF0400012C0CD16B46187B0799089ADF
S220015A3C6B4607C33A0031002800069B01F0FCFA0490049809B0F0BD604C01B0BF
S220015A58FFFF0000F0B587B00025002600270020069008E0FF204B49069A885413
S220015A740698401C0004000C069006980828F3DB04AA01210B206B4607C33A0024
S220015A903100280005AB01F0D5FA0400002C0ED16B46188A01280AD1187D002808
S220015AAC03D10C203A49887106E007203849887102E00C203649887107B0F0BDEB
S220015AC8F3B583B00025002600273248039A805CFF2805D12F480499039A8154F9
S220015AE401240CE02C48039A805C0499884201D1012404E028480499039A8154E1
S220015B000024039A062A1ED104990C290CD100200290012202A901923A00009116
S220015B1C310028000B2301F012FA0EE0049907290BD101200290012202A9019238
S220015B383A000091310028000B2301F002FA200005B0F0BD70B51C00049D0C2379
S220015B544343124EF3580B600C2343439B195B6813600C2343439B191B7A237063
S220015B700C2343439B195B7A2B7070BD0200074B9B5CFF2B01D1012006E0044B70
S220015B8C9B5C8B4201D1012000E0002070470000045C01B0A45B01B000B585B0DE
S220015BA80020F9490860091D0860091D08600831086001AA009203AA04A901209C
S220015BC402ABFFF7C1FFF1490C310498086005B000BDF7B58CB01400ED4DEC4805
S220015BE00068012804D10021102007F08DFB77E0E748001D0068012801D1E64D34
S220015BFC70E008210120FFF761FF0600002E03D10021102007F07AFB08AA00928E
S220015C180AAA0BA9012009ABFFF794FF0C9808281ED10A980104090C04AB0B98D3
S220015C340D9A01F023F80500002D07D10A980104090C02AA0B9800F015FF05007D
S220015C50002D18D105980399401807043F0CE01C874210D201250EE00D9948008C
S220015C6C0B994018610040180A9949000B9A8918884201D9012500E00025002D33
S220015C882AD10120C049091D08600020091D08600C98082810D1BC48001F0D991B
S220015CA401602004000C022101F0D6FA0600002E14D10021102007F025FB0FE0F9
S220015CC0B34810300D9901602004000C032101F0C5FA0600002E03D10021102023
S220015CDC07F014FB28000FB0F0BDF8B506000C00A94FA848001D0068012825D1C1
S220015CF8082E0BD1A2681104090CA34A083220681268022301F0B9FA05000AE063
S220015D14A2681104090C9D4A083220681268032301F0ADFA0500012D09D198496A
S220015D300831A06809684018954908310860002700E0944F3800F8BDF0B589B013
S220015D4C04000D0000268F48001D0068012842D1002D3AD101F0AFFA08900821D3
S220015D680120FFF7ADFE04AA009206AA07A9012005ABFFF7E7FE082C15D1834826
S220015D84083000680204120C08990091019206980104090C7D48001F6B461A7C91
S220015DA007683B00079800F053FF060013E0012277480830016808986B4607C3BF
S220015DBC06980104090C734810306B461A7C07683B00079800F0C0FC060001F0DF
S220015DD870FA00206C49091D0860300009B0F0BDF7B586B00D001400684E6748DE
S220015DF4001D0068012804D10021102007F082FA37E062480068002833D10821C8
S220015E100120FFF7B3FE0700012F28D102AA009204AA05A9012003ABFFF790FE8B
S220015E2C0698082809D104980104090C23002A00059800F01FFF06000DE004986F
S220015E48A84202D2514EB61E07E0002605984019206000206060A060E060002E36
S220015E6407D101204949086003E00021102007F049FA300009B0F0BD4448006831
S220015E80012802D10020424908600020704770B586B0040000253E48001D00688B
S220015E9C012803D03B480068012803D10021102007F02CFA08210120FFF762FEF2
